:100000000C9463000C948B000C948B000C948B006C
:100010000C948B000C948B000C948B000C948B0034
:100020000C948B000C948B000C948B000C948B0024
:100030000C948B000C948B000C948B000C948B0014
:100040000C94F4030C948B000C94C2030C949C034A
:100050000C948B000C948B000C948B000C948B00F4
:100060000C948B000C948B000000000024002700EF
:100070002A0000000000250028002B0000000000DE
:1000800023002600290004040404040404040202DA
:100090000202020203030303030301020408102007
:1000A0004080010204081020010204081020000012
:1000B0000008000201000003040700000000000027
:1000C00000003E04B80811241FBECFEFD8E0DEBF09
:1000D000CDBF22E0A0E8B1E001C01D92A237B20777
:1000E000E1F711E0A0E0B1E0E0E7F7E102C0059040
:1000F0000D92A038B107D9F710E0C2E6D0E004C0F5
:100100002197FE010E949009C136D107C9F70E94CC
:10011000B2040C94AB0B0C940000AF92BF92CF9240
:10012000DF92EF92FF920F931F93CF93DF936C01B7
:100130007B018B01040F151FEB015E01AE18BF0898
:10014000C017D10759F06991D601ED91FC9101904A
:10015000F081E02DC6010995892B79F7C501DF9162
:10016000CF911F910F91FF90EF90DF90CF90BF90B4
:10017000AF900895FC01538D448D252F30E0842FDE
:1001800090E0821B930B541710F0CF9608950197BF
:100190000895FC01918D828D981761F0A28DAE0FAC
:1001A000BF2FB11D5D968C91928D9F5F9F73928F33
:1001B00090E008958FEF9FEF0895FC01918D828D5F
:1001C000981731F0828DE80FF11D858D90E008952C
:1001D0008FEF9FEF0895FC01918D228D892F90E084
:1001E000805C9F4F821B91098F739927089589E83E
:1001F00091E00E94EB0021E0892B09F420E0822F9E
:10020000089580E090E0892B29F00E94F700811189
:100210000C9400000895FC01A48DA80FB92FB11D06
:10022000A35ABF4F2C91848D90E001968F7399272C
:10023000848FA689B7892C93A089B1898C9183700A
:1002400080648C93938D848D981306C00288F38903
:10025000E02D80818F7D80830895EF92FF920F9330
:100260001F93CF93DF93EC0181E0888F9B8D8C8D62
:1002700098131AC0E889F989808185FF15C09FB756
:10028000F894EE89FF896083E889F9898081837019
:10029000806480839FBF81E090E0DF91CF911F91C8
:1002A0000F91FF90EF900895F62E0B8D10E00F5FE9
:1002B0001F4F0F731127E02E8C8D8E110CC00FB6BF
:1002C00007FCFACFE889F989808185FFF5CFCE0157
:1002D0000E940B01F1CFEB8DEC0FFD2FF11DE35AC6
:1002E000FF4FF0829FB7F8940B8FEA89FB898081DA
:1002F0008062CFCFCF93DF93EC01888D8823B9F054
:10030000AA89BB89E889F9898C9185FD03C0808120
:1003100086FD0DC00FB607FCF7CF8C9185FFF2CF9D
:10032000808185FFEDCFCE010E940B01E9CFDF91E7
:10033000CF910895833081F028F4813099F0823094
:10034000A9F008958730A9F08830C9F08430B1F45D
:10035000809180008F7D03C0809180008F77809393
:100360008000089584B58F7784BD089584B58F7D0E
:10037000FBCF8091B0008F778093B000089580917B
:10038000B0008F7DF9CF1F93CF93DF93282F30E0FC
:10039000F901E255FF4F8491F901E656FF4FD491E0
:1003A000F901EA57FF4FC491CC23A9F0162F811110
:1003B0000E949A01EC2FF0E0EE0FFF1FEE58FF4F66
:1003C000A591B4918FB7F894EC91111108C0D09514
:1003D000DE23DC938FBFDF91CF911F910895DE2B39
:1003E000F8CFCF93DF9390E0FC01E656FF4F2491C6
:1003F0008A579F4FFC0184918823C9F090E0880FB1
:10040000991FFC01E859FF4FA591B491FC01EE58EA
:10041000FF4FC591D49161110DC09FB7F8948C9195
:10042000209582238C938881282328839FBFDF9186
:10043000CF910895623051F49FB7F8943C91822F88
:10044000809583238C93E8812E2BEFCF8FB7F89480
:10045000EC912E2B2C938FBFEACF3FB7F89480916D
:10046000850190918601A0918701B091880126B500
:10047000A89B05C02F3F19F00196A11DB11D3FBFDC
:10048000BA2FA92F982F8827BC01CD01620F711DAB
:10049000811D911D42E0660F771F881F991F4A95A5
:1004A000D1F70895FC01448155816081718189E80B
:1004B00091E00E948D0042E050E068E171E089E83F
:1004C00091E00C948D002091600230916102232B09
:1004D00039F421E0FC018081882361F020E00AC02A
:1004E000BC0180915C0290915D020E94810B21E031
:1004F000892BA1F7822F0895FC01808191810097BB
:1005000011F00C94E80860E070E0CB0108950F93BF
:100510001F93CF93DF93EC0188819981009759F065
:100520002A813B812617370730F081E0DF91CF9198
:100530001F910F9108958B016F5F7F4F0E94BB0A3F
:10054000009759F0998388831B830A832C813D810E
:10055000232B59F7FC011082E8CF80E0E7CFCF933F
:10056000DF93EC0188819981009711F00E94320A93
:10057000198218821D821C821B821A82DF91CF9100
:100580000895EF92FF920F931F93CF93DF93EC01A7
:10059000FB01E080F180E114F10411F10481158187
:1005A00001151105A9F08C819D81080F191FB80153
:1005B000CE010E948702882399F0288139818C819D
:1005C0009D81B701820F931F0E948A0B1D830C83AC
:1005D000CE01DF91CF911F910F91FF90EF90089581
:1005E000CE010E94AF02F4CFEF92FF920F931F93C0
:1005F000CF93DF93EC017B018A01BA010E9487024D
:1006000081110BC0CE010E94AF02CE01DF91CF91CC
:100610001F910F91FF90EF9008951D830C83B701F8
:10062000888199810E948A0BF0CFFB010190002004
:10063000E9F73197AF01461B570B0C94F4020F9367
:100640001F93CF93DF93CDB7DEB762970FB6F894C1
:10065000DEBF0FBECDBF8C01CB01F801118210822D
:1006600013821282158214824AE0BE016F5F7F4FAF
:100670000E940F09BE016F5F7F4FC8010E941503E2
:1006800062960FB6F894DEBF0FBECDBFDF91CF915B
:100690001F910F910895CF93DF9300D0CDB7DEB7B0
:1006A000FC011182108213821282158214826983E6
:1006B0001A82BE016F5F7F4F0E9415030F900F904B
:1006C000DF91CF910895CF93DF93EC01FB01861763
:1006D000970749F0608171816115710541F044818E
:1006E00055810E94F402CE01DF91CF9108950E94BE
:1006F000AF02F9CFFC01118210821382128215829F
:1007000014820C946303FC01118210821382128202
:1007100015821482FB0101900020E9F73197AF01A7
:10072000461B570B0C94F402FC01808191810097C9
:1007300011F00C94320A08951F920F920FB60F9287
:1007400011242F933F934F935F936F937F938F93D6
:100750009F93AF93BF93EF93FF9389E891E00E943B
:100760000B01FF91EF91BF91AF919F918F917F917D
:100770006F915F914F913F912F910F900FBE0F900E
:100780001F9018951F920F920FB60F9211242F935E
:100790008F939F93EF93FF93E0919901F0919A01CA
:1007A0008081E0919F01F091A00182FD1BC09081AA
:1007B0008091A2018F5F8F732091A301821741F076
:1007C000E091A201F0E0E757FE4F958F8093A201E0
:1007D000FF91EF919F918F912F910F900FBE0F90EE
:1007E0001F9018958081F4CF1F920F920FB60F9231
:1007F00011242F933F938F939F93AF93BF93809137
:10080000810190918201A0918301B0918401309186
:10081000800123E0230F2D3758F50196A11DB11D4E
:10082000209380018093810190938201A0938301A2
:10083000B09384018091850190918601A0918701F8
:10084000B09188010196A11DB11D809385019093FF
:100850008601A0938701B0938801BF91AF919F91CA
:100860008F913F912F910F900FBE0F901F90189571
:1008700026E8230F0296A11DB11DD2CFE9E8F1E0D1
:100880001382128288EE93E0A0E0B0E08483958327
:10089000A683B7838AE091E09183808385EC90E022
:1008A0009587848784EC90E09787868780EC90E03A
:1008B000918B808B81EC90E0938B828B82EC90E02B
:1008C000958B848B86EC90E0978B868B118E128EA5
:1008D000138E148E6AE171E088E692E00E94830331
:1008E0006AE171E082E692E00E9483036AE171E0CE
:1008F0008CE592E00E9483036AE171E086E592E074
:100900000E9483036AE171E080E592E00E94830324
:100910006AE171E08AE492E00E9483036AE171E097
:1009200084E492E00E9483036AE171E08EE392E046
:100930000E9483036AE171E088E392E00E948303EE
:100940006AE171E082E392E00E9483036AE171E070
:100950008CE292E00E9483036AE171E086E292E019
:100960000C948303CF93DF93CDB7DEB72C970FB6EC
:10097000F894DEBF0FBECDBF789484B5826084BD8D
:1009800084B5816084BD85B5826085BD85B5816093
:1009900085BD80916E00816080936E001092810011
:1009A00080918100826080938100809181008160CC
:1009B000809381008091800081608093800080918D
:1009C000B10084608093B1008091B0008160809319
:1009D000B00080917A00846080937A0080917A00E0
:1009E000826080937A0080917A00816080937A009F
:1009F00080917A00806880937A001092C100E09123
:100A00009901F0919A0182E08083E0919501F09143
:100A100096011082E0919701F09198018FEC80830C
:100A20001092A101E0919D01F0919E0186E08083EA
:100A3000E0919B01F0919C01808180618083E09135
:100A40009B01F0919C01808188608083E0919B01F3
:100A5000F0919C01808180688083E0919B01F091FE
:100A60009C0180818F7D808320E0E22E20E0F22EA9
:100A70006AE171E088E692E00E9415036AE171E0A4
:100A800082E692E00E9415036AE171E08CE592E053
:100A90000E9415036AE171E086E592E00E94150369
:100AA0006AE171E080E592E00E9415036AE171E07D
:100AB0008AE492E00E9415036AE171E084E492E026
:100AC0000E9415036AE171E08EE392E00E94150333
:100AD0006AE171E088E392E00E9415036AE171E047
:100AE00082E392E00E9415036AE171E08CE292E0F9
:100AF0000E9415036AE171E086E292E00E9415030C
:100B000089E891E00E94EB00892B09F45DC1A12CDA
:100B1000912CB12C01E0CC24C394D12C89E891E034
:100B20000E94EB00892B09F44FC189E891E00E94F3
:100B3000C900182F682FCE0101960E944B0368E66A
:100B400072E0CE0107960E947A03BE016F5F7F4F6D
:100B5000CE0107960E94C102BC0188E692E00E9485
:100B60006303CE0107960E949403CE0101960E9472
:100B700094031F3361F0103209F421C11D3009F4D0
:100B80001EC11A3009F41BC121E0D21289C0612FA5
:100B9000CE0101960E944B0362E672E0CE010796F9
:100BA0000E947A03BE016F5F7F4FCE0107960E94BD
:100BB000C102BC0182E692E00E946303CE01079667
:100BC0000E949403CE0101960E9494031D3309F400
:100BD00083C21B3351F50F5F81E0C8123FC2612F02
:100BE000CE0101960E944B036CE572E0CE010796A0
:100BF0000E947A03BE016F5F7F4FCE0107960E946D
:100C0000C102BC018CE592E00E946303CE0107960D
:100C10000E949403CE0101960E9494031F33C9F5EC
:100C2000BB24B394DD24D3943BC0E1E0CE127AC25E
:100C30001F33A9F6BE1699F2DD24D394BB24B394D6
:100C40002FC01B3329F1612FCE0101960E944B0367
:100C50006AE472E0CE0107960E947A03BE016F5FDC
:100C60007F4FCE0107960E94C102BC018AE492E048
:100C70000E946303CE0107960E949403CE01019661
:100C80000E9494031F3309F421C21D3309F420C2CA
:100C9000C12C093038F2DD24D3941B3309F491C000
:100CA0000E942D022B013C010E942D02641975093E
:100CB00086099709683E73408105910508F02ECF9B
:100CC000F3CF1B3329F3612FCE0101960E944B0312
:100CD00064E472E0CE0107960E947A03BE016F5F62
:100CE0007F4FCE0107960E94C102BC0184E492E0CE
:100CF000BFCF1B3369F2612FCE0101960E944B03D7
:100D00006EE372E0CE0107960E947A03BE016F5F28
:100D10007F4FCE0107960E94C102BC018EE392E094
:100D2000A7CF1B3309F4B4CF612FCE0101960E94E7
:100D30004B0368E372E0CE0107960E947A03BE017E
:100D40006F5F7F4FCE0107960E94C102BC0188E30E
:100D500092E08ECF1B3309F49BCF612FCE01019619
:100D60000E944B0362E372E0CE0107960E947A0371
:100D7000BE016F5F7F4FCE0107960E94C102BC018A
:100D800082E392E075CFDD24D394C12C1B3309F4A8
:100D900087CF612FCE0101960E944B036CE272E077
:100DA000CE0107960E947A03BE016F5F7F4FCE018E
:100DB00007960E94C102BC018CE292E059CFD12C6F
:100DC0006FCFAA24A3946CCF6BE171E0CE010196A2
:100DD0000E94830380916C0290916D02892B71F0C7
:100DE000009168021091690269817A81C8010E94AC
:100DF000910B6C01C01AD10A892B19F4CC24CA9426
:100E0000DC2CCE0101960E949403C114D104A1F4FC
:100E10008DE191E00E94630281110EC085E291E0B4
:100E20000E9463028823A1F086E592E00E947C0282
:100E3000862F62E00E94F101E114F10409F418CE5A
:100E40000E94F700882309F413CE0E94000010CE00
:100E500081E391E00E946302882361F080E592E0E3
:100E60000E947C02162F86E592E00E947C02862F6B
:100E7000612FE0CF89E391E00E9463028823B1F003
:100E800086E592E00E947C02862F61E00E94F101DB
:100E900080E592E00E947C02162F86E592E00E9497
:100EA0007C02862F612F0E94C301C6CF86E491E0A9
:100EB0000E946302882309F434C086E592E00E9410
:100EC0007C0270E0FB01E255FF4F8491FB01E65686
:100ED000FF4F04916A577F4FFB011491112399F042
:100EE00081110E949A01E12FF0E0EE0FFF1FE458FC
:100EF000FF4FA591B491EC910E2391E080E009F4AD
:100F000090E0C92ED82EB601CE0101960E941F0393
:100F1000CE0101960E945202CE0101960E949403D6
:100F20008BCF82E591E00E946302882309F46EC0B2
:100F300086E592E00E947C02862F61E00E94F1012A
:100F400080E592E00E947C02162FB72EC62ED72E87
:100F500086E592E00E947C02062F61E0802F0E94CD
:100F6000F101C114D10419F460E0802F9CCFFFEF90
:100F7000CF16D10411F461E0F8CFE02FF0E0E25594
:100F8000FF4FE491E33031F148F4E130C9F0E23051
:100F9000E1F020E8C216D10474F7E6CFE73031F172
:100FA000E83061F1E430A9F780918000806280939D
:100FB0008000812F9B2D90938B0080938A003CCFE3
:100FC00084B5806884BD17BD37CF84B5806284BD89
:100FD00018BD32CF80918000806880938000812F7F
:100FE0009B2D909389008093880026CF8091B0003C
:100FF00080688093B0001093B3001ECF8091B00042
:1010000080628093B0001093B40016CF8EE591E01B
:101010000E9463028823D9F086E592E00E947C0258
:101020006E3008F06E506770606460937C00809151
:101030007A00806480937A0080917A0086FDFCCFEC
:101040008091780060917900762F682F5DCF69E6F6
:1010500071E0CE0101960E9483035ACF013009F45A
:1010600040C0023009F482C0033009F4EACD0430F4
:1010700009F427CE053009F43CCE063009F451CEF0
:10108000073009F467CE083009F47DCE08F4FACDB4
:101090001B3331F421E0CA2CDD24D394A21291CE6B
:1010A000612FCE0101960E944B0366E272E0CE01F1
:1010B00007960E947A03BE016F5F7F4FCE010796AD
:1010C0000E94C102BC0186E292E0D2CDC12CA8CD23
:1010D000C12C99249394A6CD013031F5F1E09F12F3
:1010E0001FC0612FCE0101960E944B0366E572E09E
:1010F000CE0107960E947A03BE016F5F7F4FCE013B
:1011000007960E94C102BC0186E592E00E9463033B
:10111000CE0107960E949403CE0101960E9494038B
:1011200001E0B0CD0130E9F2023009F09DCF612F2E
:10113000CE0101960E944B0360E572E0CE01079656
:101140000E947A03BE016F5F7F4FCE0107960E9417
:10115000C102BC0180E592E00E946303CE010796C4
:101160000E949403CE0101960E94940302E08ACD6E
:1011700086E292E00E9494038CE292E00E94940343
:1011800082E392E00E94940388E392E00E94940339
:101190008EE392E00E94940384E492E00E94940320
:1011A0008AE492E00E94940380E592E00E94940316
:1011B00086E592E00E9494038CE592E00E949403FD
:1011C00082E692E00E94940388E692E00C949403F5
:1011D0001F93FC0199278827BC01E89411911032D4
:1011E000E9F3193010F01E30C8F31B3251F01D32F4
:1011F00049F4689406C00E941A09610F711D811D8F
:10120000911D119110531A30B0F33EF490958095D2
:10121000709561957F4F8F4F9F4F1F910895BB270A
:101220004A3031F4992322F4BDE2909581959F4F85
:101230000C943009592F482F372F262F660F771F10
:10124000881F991F660F771F881F991F620F731FD2
:10125000841F951F660F771F881F991F0895BB274E
:10126000FB015527AA27880F991FAA1FA41710F062
:10127000A41B83955051B9F7A05DAA3308F0A95D6E
:10128000A193009779F7B111B1931192CB010C940E
:101290004909DC01FC01672F71917723E1F732974F
:1012A00004C07C916D9370836291AE17BF07C8F341
:1012B00008952F923F924F925F926F927F928F92FA
:1012C0009F92AF92BF92CF92DF92EF92FF920F93D5
:1012D0001F93CF93DF93CDB7DEB7CA1BDB0B0FB6DF
:1012E000F894DEBF0FBECDBF09942A88398848889C
:1012F0005F846E847D848C849B84AA84B984C88432
:10130000DF80EE80FD800C811B81AA81B981CE0F28
:10131000D11D0FB6F894DEBF0FBECDBFED0108950D
:10132000EE0FFF1F0590F491E02D09940F931F938A
:10133000CF93DF938230910510F482E090E0E0914A
:101340007002F091710230E020E0B0E0A0E0309750
:1013500099F42115310509F44AC0281B390B2430B2
:101360003105D8F58A819B816115710589F1FB01F1
:1013700093838283FE0111C04081518102811381D8
:1013800048175907E0F04817590799F4109761F08A
:1013900012960C93129713961C933296CF01DF91FD
:1013A000CF911F910F9108950093700210937102D5
:1013B000F4CF2115310551F04217530738F0A90138
:1013C000DB019A01BD01DF01F801C1CFEF01F9CFC7
:1013D0009093710280937002CDCFFE01E20FF31F54
:1013E000819391932250310939832883D7CF20915B
:1013F0006E0230916F02232B41F420910201309153
:10140000030130936F0220936E022091000130910E
:1014100001012115310541F42DB73EB7409104017A
:1014200050910501241B350BE0916E02F0916F0283
:10143000E217F307A0F42E1B3F0B2817390778F0AB
:10144000AC014E5F5F4F2417350748F04E0F5F1F0A
:1014500050936F0240936E02819391939FCFF0E07F
:10146000E0E09CCFCF93DF930097E9F0FC01329747
:1014700013821282A0917002B0917102ED0130E0EE
:1014800020E01097A1F420813181820F931F2091D9
:101490006E0230916F022817390709F061C0F0938E
:1014A0006F02E0936E02DF91CF910895EA01CE17AB
:1014B000DF07E8F54A815B819E0141155105B1F7CF
:1014C000E901FB83EA8349915991C40FD51FEC17B9
:1014D000FD0761F4808191810296840F951FE901D7
:1014E00099838883828193819B838A83F0E0E0E003
:1014F00012968D919C9113970097B9F52D913C917F
:101500001197CD010296820F931F20916E023091A8
:101510006F022817390739F6309751F5109271028A
:1015200010927002B0936F02A0936E02BCCFD3836F
:10153000C28340815181840F951FC817D90761F478
:101540004E5F5F4F88819981480F591F51834083B7
:101550008A819B81938382832115310509F0B0CF65
:10156000F0937102E09370029ECFFD01DC01C0CFC9
:1015700013821282D7CFB0E0A0E0E1ECFAE00C9445
:101580005B098C01009751F4CB010E9496098C01F4
:10159000C801CDB7DEB7E0E10C947709FC01E60F96
:1015A000F71F9C0122503109E217F30708F49DC090
:1015B000D901CD91DC911197C617D70798F0C530A6
:1015C000D10530F3CE0104978617970708F3C61BA1
:1015D000D70B2297C193D1936D937C93CF010E9437
:1015E000320AD6CF5B01AC1ABD0A4C018C0E9D1E8F
:1015F000A0917002B0917102512C412CF12CE12C80
:10160000109731F580916E0290916F0288159905BF
:1016100009F05CC04616570608F058C080910001DA
:1016200090910101009741F48DB79EB7409104015C
:1016300050910501841B950BE817F90708F055C078
:10164000F0936F02E0936E02F90171836083A0CF83
:101650008D919C91119712966C90129713967C9095
:101660001397A815B90559F56C0142E0C40ED11CB9
:10167000CA14DB0420F1AC014A195B09DA011296A5
:10168000159780F06282738251834083D9016D93F4
:101690007C93E114F10471F0D7011396FC93EE935F
:1016A000129776CF22968C0F9D1FF901918380832C
:1016B000F301EFCFF0937102E093700269CF481607
:1016C000590608F42C017D01D3019ACFCB010E9469
:1016D00096097C01009749F0AE01B8010E94780B91
:1016E000C8010E94320A870153CF10E000E050CFBA
:1016F000FB01DC0102C001900D9241505040D8F72F
:101700000895FB01DC018D91019080190110D9F33E
:10171000990B0895FB01DC0101900D920020E1F787
:101720000895FB0151915523A9F0BF01DC014D91B2
:1017300045174111E1F759F4CD010190002049F01E
:101740004D9140154111C9F3FB014111EFCF81E0EB
:1017500090E00197089510E0C2E6D0E004C0FE01D9
:101760000E9490092196C336D107C9F7F894FFCF9C
:10177000000072028000000000002D018D00BA0000
:101780007A01EB00C900DD000D0A003F00796F759A
:1017900072636D6400696E70757470756C6C7570D1
:1017A0000070696E6D6F6465006469676974616C6F
:1017B0007772697465006469676974616C726561E8
:1017C0006400616E616C6F67777269746500616E49
:1017D000616C6F677265616400636F6D6D616E64EB
:1017E000206973206E6F7420646566696E6564009D
:00000001FF
