:100000000C9463000C948B000C948B000C948B006C
:100010000C948B000C948B000C948B000C948B0034
:100020000C948B000C948B000C948B000C948B0024
:100030000C948B000C948B000C948B000C948B0014
:100040000C94EC030C948B000C94BA030C94940362
:100050000C948B000C948B000C948B000C948B00F4
:100060000C948B000C948B000000000024002700EF
:100070002A0000000000250028002B0000000000DE
:1000800023002600290004040404040404040202DA
:100090000202020203030303030301020408102007
:1000A0004080010204081020010204081020000012
:1000B0000008000201000003040700000000000027
:1000C00000003604BC0811241FBECFEFD8E0DEBF0D
:1000D000CDBF22E0AEE7B1E001C01D92A037B2076C
:1000E000E1F711E0A0E0B1E0E8E7F7E102C0059038
:1000F0000D92AE37B107D9F710E0C2E6D0E004C0E8
:100100002197FE010E949409C136D107C9F70E94C8
:10011000AA040C94AF0B0C940000AF92BF92CF9244
:10012000DF92EF92FF920F931F93CF93DF936C01B7
:100130007B018B01040F151FEB015E01AE18BF0898
:10014000C017D10759F06991D601ED91FC9101904A
:10015000F081E02DC6010995892B79F7C501DF9162
:10016000CF911F910F91FF90EF90DF90CF90BF90B4
:10017000AF900895FC01538D448D252F30E0842FDE
:1001800090E0821B930B541710F0CF9608950197BF
:100190000895FC01918D828D981761F0A28DAE0FAC
:1001A000BF2FB11D5D968C91928D9F5F9F73928F33
:1001B00090E008958FEF9FEF0895FC01918D828D5F
:1001C000981731F0828DE80FF11D858D90E008952C
:1001D0008FEF9FEF0895FC01918D228D892F90E084
:1001E000805C9F4F821B91098F739927089587E840
:1001F00091E00E94EB0021E0892B09F420E0822F9E
:10020000089580E090E0892B29F00E94F700811189
:100210000C9400000895FC01A48DA80FB92FB11D06
:10022000A35ABF4F2C91848D90E001968F7399272C
:10023000848FA689B7892C93A089B1898C9183700A
:1002400080648C93938D848D981306C00288F38903
:10025000E02D80818F7D80830895EF92FF920F9330
:100260001F93CF93DF93EC0181E0888F9B8D8C8D62
:1002700098131AC0E889F989808185FF15C09FB756
:10028000F894EE89FF896083E889F9898081837019
:10029000806480839FBF81E090E0DF91CF911F91C8
:1002A0000F91FF90EF900895F62E0B8D10E00F5FE9
:1002B0001F4F0F731127E02E8C8D8E110CC00FB6BF
:1002C00007FCFACFE889F989808185FFF5CFCE0157
:1002D0000E940B01F1CFEB8DEC0FFD2FF11DE35AC6
:1002E000FF4FF0829FB7F8940B8FEA89FB898081DA
:1002F0008062CFCFCF93DF93EC01888D8823B9F054
:10030000AA89BB89E889F9898C9185FD03C0808120
:1003100086FD0DC00FB607FCF7CF8C9185FFF2CF9D
:10032000808185FFEDCFCE010E940B01E9CFDF91E7
:10033000CF910895833081F028F4813099F0823094
:10034000A9F008958730A9F08830C9F08430B1F45D
:10035000809180008F7D03C0809180008F77809393
:100360008000089584B58F7784BD089584B58F7D0E
:10037000FBCF8091B0008F778093B000089580917B
:10038000B0008F7DF9CF1F93CF93DF93282F30E0FC
:10039000F901E255FF4F8491F901E656FF4FD491E0
:1003A000F901EA57FF4FC491CC23A9F0162F811110
:1003B0000E949A01EC2FF0E0EE0FFF1FEE58FF4F66
:1003C000A591B4918FB7F894EC91111108C0D09514
:1003D000DE23DC938FBFDF91CF911F910895DE2B39
:1003E000F8CFCF93DF9390E0FC01E656FF4F2491C6
:1003F0008A579F4FFC0184918823C9F090E0880FB1
:10040000991FFC01E859FF4FA591B491FC01EE58EA
:10041000FF4FC591D49161110DC09FB7F8948C9195
:10042000209582238C938881282328839FBFDF9186
:10043000CF910895623051F49FB7F8943C91822F88
:10044000809583238C93E8812E2BEFCF8FB7F89480
:10045000EC912E2B2C938FBFEACF3FB7F89480916D
:10046000830190918401A0918501B091860126B508
:10047000A89B05C02F3F19F00196A11DB11D3FBFDC
:10048000BA2FA92F982F8827BC01CD01620F711DAB
:10049000811D911D42E0660F771F881F991F4A95A5
:1004A000D1F70895FC01448155816081718187E80D
:1004B00091E00C948D0020915E0230915F02232B1D
:1004C00039F421E0FC018081882361F020E00AC03A
:1004D000BC0180915A0290915B020E94850B21E041
:1004E000892BA1F7822F0895FC01808191810097CB
:1004F00011F00C94EC0860E070E0CB0108950F93CC
:100500001F93CF93DF93EC0188819981009759F075
:100510002A813B812617370730F081E0DF91CF91A8
:100520001F910F9108958B016F5F7F4F0E94BF0A4B
:10053000009759F0998388831B830A832C813D811E
:10054000232B59F7FC011082E8CF80E0E7CFCF934F
:10055000DF93EC0188819981009711F00E94360A9F
:10056000198218821D821C821B821A82DF91CF9110
:100570000895EF92FF920F931F93CF93DF93EC01B7
:10058000FB01E080F180E114F10411F10481158197
:1005900001151105A9F08C819D81080F191FB80163
:1005A000CE010E947F02882399F0288139818C81B5
:1005B0009D81B701820F931F0E948E0B1D830C83B8
:1005C000CE01DF91CF911F910F91FF90EF90089591
:1005D000CE010E94A702F4CFEF92FF920F931F93D8
:1005E000CF93DF93EC017B018A01BA010E947F0265
:1005F00081110BC0CE010E94A702CE01DF91CF91E5
:100600001F910F91FF90EF9008951D830C83B70108
:10061000888199810E948E0BF0CFFB010190002010
:10062000E9F73197AF01461B570B0C94EC020F937F
:100630001F93CF93DF93CDB7DEB762970FB6F894D1
:10064000DEBF0FBECDBF8C01CB01F801118210823D
:1006500013821282158214824AE0BE016F5F7F4FBF
:100660000E941309BE016F5F7F4FC8010E940D03F6
:1006700062960FB6F894DEBF0FBECDBFDF91CF916B
:100680001F910F910895CF93DF9300D0CDB7DEB7C0
:10069000FC011182108213821282158214826983F6
:1006A0001A82BE016F5F7F4F0E940D030F900F9063
:1006B000DF91CF910895CF93DF93EC01FB01861773
:1006C000970749F0608171816115710541F044819E
:1006D00055810E94EC02CE01DF91CF9108950E94D6
:1006E000A702F9CFFC0111821082138212821582B7
:1006F00014820C945B03FC0111821082138212821B
:1007000015821482FB0101900020E9F73197AF01B7
:10071000461B570B0C94EC02FC01808191810097E1
:1007200011F00C94360A08951F920F920FB60F9293
:1007300011242F933F934F935F936F937F938F93E6
:100740009F93AF93BF93EF93FF9387E891E00E944D
:100750000B01FF91EF91BF91AF919F918F917F918D
:100760006F915F914F913F912F910F900FBE0F901E
:100770001F9018951F920F920FB60F9211242F936E
:100780008F939F93EF93FF93E0919701F0919801DE
:100790008081E0919D01F0919E0182FD1BC09081BE
:1007A0008091A0018F5F8F732091A101821741F08A
:1007B000E091A001F0E0E957FE4F958F8093A001F2
:1007C000FF91EF919F918F912F910F900FBE0F90FE
:1007D0001F9018958081F4CF1F920F920FB60F9241
:1007E00011242F933F938F939F93AF93BF93809147
:1007F0007F0190918001A0918101B091820130919F
:100800007E0123E0230F2D3758F50196A11DB11D60
:1008100020937E0180937F0190938001A0938101BA
:10082000B09382018091830190918401A091850110
:10083000B09186010196A11DB11D80938301909313
:100840008401A0938501B0938601BF91AF919F91E0
:100850008F913F912F910F900FBE0F901F90189581
:1008600026E8230F0296A11DB11DD2CFE7E8F1E0E3
:100870001382128288EE93E0A0E0B0E08483958337
:10088000A683B7838AE091E09183808385EC90E032
:100890009587848784EC90E09787868780EC90E04A
:1008A000918B808B81EC90E0938B828B82EC90E03B
:1008B000958B848B86EC90E0978B868B118E128EB5
:1008C000138E148E69E171E086E692E00E947B034C
:1008D00069E171E080E692E00E947B0369E171E0EA
:1008E0008AE592E00E947B0369E171E084E592E091
:1008F0000E947B0369E171E08EE492E00E947B0339
:1009000069E171E088E492E00E947B0369E171E0B3
:1009100082E492E00E947B0369E171E08CE392E063
:100920000E947B0369E171E086E392E00E947B0311
:1009300069E171E080E392E00E947B0369E171E08C
:100940008AE292E00E947B0369E171E084E292E036
:100950000C947B03CF93DF93CDB7DEB72C970FB604
:10096000F894DEBF0FBECDBF789484B5826084BD9D
:1009700084B5816084BD85B5826085BD85B58160A3
:1009800085BD80916E00816080936E001092810021
:1009900080918100826080938100809181008160DC
:1009A000809381008091800081608093800080919D
:1009B000B10084608093B1008091B0008160809329
:1009C000B00080917A00846080937A0080917A00F0
:1009D000826080937A0080917A00816080937A00AF
:1009E00080917A00806880937A001092C100E09133
:1009F0009701F091980182E08083E0919301F0915A
:100A000094011082E0919501F09196018FEC808322
:100A100010929F01E0919B01F0919C0186E0808300
:100A2000E0919901F0919A01808180618083E09149
:100A30009901F0919A01808188608083E091990109
:100A4000F0919A01808180688083E0919901F09112
:100A50009A0180818F7D80838AE090E0A0E0B0E001
:100A600080938B0190938C01A0938D01B0938E01A4
:100A700020E0E22E20E0F22E69E171E086E692E0CD
:100A80000E940D0369E171E080E692E00E940D038F
:100A900069E171E08AE592E00E940D0369E171E08D
:100AA00084E592E00E940D0369E171E08EE492E03A
:100AB0000E940D0369E171E088E492E00E940D0359
:100AC00069E171E082E492E00E940D0369E171E066
:100AD0008CE392E00E940D0369E171E086E392E00D
:100AE0000E940D0369E171E080E392E00E940D0332
:100AF00069E171E08AE292E00E940D0369E171E030
:100B000084E292E00E940D0387E891E00E94EB00EE
:100B1000892B09F45DC1A12C912CB12C01E0CC24CE
:100B2000C394D12C87E891E00E94EB00892B09F453
:100B30004FC187E891E00E94C900182F682FCE01AD
:100B400001960E94430366E672E0CE0107960E947A
:100B50007203BE016F5F7F4FCE0107960E94B902FC
:100B6000BC0186E692E00E945B03CE0107960E94DC
:100B70008C03CE0101960E948C031F3361F010326A
:100B800009F421C11D3009F41EC11A3009F41BC13A
:100B900021E0D21289C0612FCE0101960E94430349
:100BA00060E672E0CE0107960E947203BE016F5F9D
:100BB0007F4FCE0107960E94B902BC0180E692E009
:100BC0000E945B03CE0107960E948C03CE01019622
:100BD0000E948C031D3309F483C21B3351F50F5F50
:100BE00081E0C8123FC2612FCE0101960E944303EB
:100BF0006AE572E0CE0107960E947203BE016F5F44
:100C00007F4FCE0107960E94B902BC018AE592E0AF
:100C10000E945B03CE0107960E948C03CE010196D1
:100C20000E948C031F33C9F5BB24B394DD24D394F5
:100C30003BC0E1E0CE127AC21F33A9F6BE1699F28C
:100C4000DD24D394BB24B3942FC01B3329F1612F2F
:100C5000CE0101960E94430368E472E0CE0107963C
:100C60000E947203BE016F5F7F4FCE0107960E9404
:100C7000B902BC0188E492E00E945B03CE010796B2
:100C80000E948C03CE0101960E948C031F3309F44D
:100C900021C21D3309F420C2C12C093038F2DD24F1
:100CA000D3941B3309F491C00E942D022B013C0107
:100CB0000E942D026419750986099709683E7340E0
:100CC0008105910508F02ECFF3CF1B3329F3612F57
:100CD000CE0101960E94430362E472E0CE010796C2
:100CE0000E947203BE016F5F7F4FCE0107960E9484
:100CF000B902BC0182E492E0BFCF1B3369F2612FDD
:100D0000CE0101960E9443036CE372E0CE01079688
:100D10000E947203BE016F5F7F4FCE0107960E9453
:100D2000B902BC018CE392E0A7CF1B3309F4B4CF26
:100D3000612FCE0101960E94430366E372E0CE016B
:100D400007960E947203BE016F5F7F4FCE01079628
:100D50000E94B902BC0186E392E08ECF1B3309F4F6
:100D60009BCF612FCE0101960E94430360E372E0A6
:100D7000CE0107960E947203BE016F5F7F4FCE01C6
:100D800007960E94B902BC0180E392E075CFDD2492
:100D9000D394C12C1B3309F487CF612FCE01019668
:100DA0000E9443036AE272E0CE0107960E9472033A
:100DB000BE016F5F7F4FCE0107960E94B902BC0152
:100DC0008AE292E059CFD12C6FCFAA24A3946CCFA2
:100DD00068E171E0CE0101960E947B0380916A0276
:100DE00090916B02892B71F000916602109167025D
:100DF00069817A81C8010E94950B6C01C01AD10AE1
:100E0000892B19F4CC24CA94DC2CCE0101960E94C3
:100E10008C03C114D104A1F48AE191E00E945B0229
:100E200081110EC082E291E00E945B028823A1F052
:100E300084E592E00E947402862F62E00E94F10134
:100E4000E114F10409F418CE0E94F700882309F494
:100E500013CE0E94000010CE8EE291E00E945B0251
:100E6000882361F08EE492E00E947402162F84E5DC
:100E700092E00E947402862F612FE0CF86E391E01A
:100E80000E945B028823B1F084E592E00E94740224
:100E9000862F61E00E94F1018EE492E00E947402CC
:100EA000162F84E592E00E947402862F612F0E9423
:100EB000C301C6CF83E491E00E945B02882309F45A
:100EC00034C084E592E00E94740270E0FB01E255B8
:100ED000FF4F8491FB01E656FF4F04916A577F4F05
:100EE000FB011491112399F081110E949A01E12FC5
:100EF000F0E0EE0FFF1FE458FF4FA591B491EC9185
:100F00000E2391E080E009F490E0C92ED82EB601BE
:100F1000CE0101960E941703CE0101960E94520253
:100F2000CE0101960E948C038BCF8FE491E00E944A
:100F30005B02882309F46EC084E592E00E9474028B
:100F4000862F61E00E94F1018EE492E00E9474021B
:100F5000162FB72EC62ED72E84E592E00E9474027B
:100F6000062F61E0802F0E94F101C114D10419F411
:100F700060E0802F9CCFFFEFCF16D10411F461E029
:100F8000F8CFE02FF0E0E255FF4FE491E33031F18C
:100F900048F4E130C9F0E230E1F020E8C216D104B3
:100FA00074F7E6CFE73031F1E83061F1E430A9F7CA
:100FB00080918000806280938000812F9B2D909390
:100FC0008B0080938A003CCF84B5806884BD17BDB8
:100FD00037CF84B5806284BD18BD32CF8091800048
:100FE000806880938000812F9B2D9093890080934F
:100FF000880026CF8091B00080688093B000109365
:10100000B3001ECF8091B00080628093B000109337
:10101000B40016CF8BE591E00E945B028823D9F0E3
:1010200084E592E00E9474026E3008F06E506770A2
:10103000606460937C0080917A00806480937A0081
:1010400080917A0086FDFCCF8091780060917900D4
:10105000762F682F5DCF66E671E0CE0101960E9483
:101060007B035ACF013009F440C0023009F482C03A
:10107000033009F4EACD043009F427CE053009F431
:101080003CCE063009F451CE073009F467CE083063
:1010900009F47DCE08F4FACD1B3331F421E0CA2CDB
:1010A000DD24D394A21291CE612FCE0101960E942D
:1010B000430364E272E0CE0107960E947203BE0110
:1010C0006F5F7F4FCE0107960E94B902BC0184E298
:1010D00092E0D2CDC12CA8CDC12C99249394A6CD59
:1010E000013031F5F1E09F121FC0612FCE01019652
:1010F0000E94430364E572E0CE0107960E947203EA
:10110000BE016F5F7F4FCE0107960E94B902BC01FE
:1011100084E592E00E945B03CE0107960E948C0357
:10112000CE0101960E948C0301E0B0CD0130E9F2BE
:10113000023009F09DCF612FCE0101960E9443033A
:101140006EE472E0CE0107960E947203BE016F5FEB
:101150007F4FCE0107960E94B902BC018EE492E057
:101160000E945B03CE0107960E948C03CE0101967C
:101170000E948C0302E08ACD84E292E00E948C03FC
:101180008AE292E00E948C0380E392E00E948C034A
:1011900086E392E00E948C038CE392E00E948C0331
:1011A00082E492E00E948C0388E492E00E948C0327
:1011B0008EE492E00E948C0384E592E00E948C030E
:1011C0008AE592E00E948C0380E692E00E948C0304
:1011D00086E692E00C948C031F93FC0199278827E4
:1011E000BC01E89411911032E9F3193010F01E306F
:1011F000C8F31B3251F01D3249F4689406C00E94B6
:101200001E09610F711D811D911D119110531A301E
:10121000B0F33EF490958095709561957F4F8F4F18
:101220009F4F1F910895BB274A3031F4992322F430
:10123000BDE2909581959F4F0C943409592F482F0A
:10124000372F262F660F771F881F991F660F771F6E
:10125000881F991F620F731F841F951F660F771FCA
:10126000881F991F0895BB27FB015527AA27880FC0
:10127000991FAA1FA41710F0A41B83955051B9F70A
:10128000A05DAA3308F0A95DA193009779F7B11189
:10129000B1931192CB010C944D09DC01FC01672F35
:1012A00071917723E1F7329704C07C916D9370833D
:1012B0006291AE17BF07C8F308952F923F924F92E5
:1012C0005F926F927F928F929F92AF92BF92CF92D6
:1012D000DF92EF92FF920F931F93CF93DF93CDB7DF
:1012E000DEB7CA1BDB0B0FB6F894DEBF0FBECDBF57
:1012F00009942A88398848885F846E847D848C8428
:101300009B84AA84B984C884DF80EE80FD800C8130
:101310001B81AA81B981CE0FD11D0FB6F894DEBF13
:101320000FBECDBFED010895EE0FFF1F0590F491A4
:10133000E02D09940F931F93CF93DF938230910593
:1013400010F482E090E0E0916E02F0916F0230E0E4
:1013500020E0B0E0A0E0309799F42115310509F4C0
:101360004AC0281B390B24303105D8F58A819B816E
:101370006115710589F1FB0193838283FE0111C020
:10138000408151810281138148175907E0F04817C5
:10139000590799F4109761F012960C9312971396CF
:1013A0001C933296CF01DF91CF911F910F91089539
:1013B00000936E0210936F02F4CF2115310551F0A6
:1013C0004217530738F0A901DB019A01BD01DF0183
:1013D000F801C1CFEF01F9CF90936F0280936E02B5
:1013E000CDCFFE01E20FF31F81939193225031097B
:1013F00039832883D7CF20916C0230916D02232B43
:1014000041F4209102013091030130936D02209349
:101410006C0220910001309101012115310541F448
:101420002DB73EB74091040150910501241B350BA7
:10143000E0916C02F0916D02E217F307A0F42E1B0D
:101440003F0B2817390778F0AC014E5F5F4F241728
:10145000350748F04E0F5F1F50936D0240936C02AA
:10146000819391939FCFF0E0E0E09CCFCF93DF9307
:101470000097E9F0FC01329713821282A0916E026C
:10148000B0916F02ED0130E020E01097A1F42081CF
:101490003181820F931F20916C0230916D022817C9
:1014A000390709F061C0F0936D02E0936C02DF919F
:1014B000CF910895EA01CE17DF07E8F54A815B81F5
:1014C0009E0141155105B1F7E901FB83EA8349917A
:1014D0005991C40FD51FEC17FD0761F480819181EC
:1014E0000296840F951FE9019983888382819381F5
:1014F0009B838A83F0E0E0E012968D919C91139794
:101500000097B9F52D913C911197CD010296820F6C
:10151000931F20916C0230916D022817390739F61C
:10152000309751F510926F0210926E02B0936D02D7
:10153000A0936C02BCCFD383C28340815181840FBE
:10154000951FC817D90761F44E5F5F4F8881998155
:10155000480F591F518340838A819B8193838283E3
:101560002115310509F0B0CFF0936F02E0936E02C0
:101570009ECFFD01DC01C0CF13821282D7CFB0E035
:10158000A0E0E5ECFAE00C945F098C01009751F4BF
:10159000CB010E949A098C01C801CDB7DEB7E0E10A
:1015A0000C947B09FC01E60FF71F9C0122503109C6
:1015B000E217F30708F49DC0D901CD91DC91119792
:1015C000C617D70798F0C530D10530F3CE01049780
:1015D0008617970708F3C61BD70B2297C193D193A1
:1015E0006D937C93CF010E94360AD6CF5B01AC1A73
:1015F000BD0A4C018C0E9D1EA0916E02B0916F022F
:10160000512C412CF12CE12C109731F580916C027A
:1016100090916D028815990509F05CC04616570631
:1016200008F058C08091000190910101009741F4A9
:101630008DB79EB74091040150910501841B950B15
:10164000E817F90708F055C0F0936D02E0936C02BB
:10165000F90171836083A0CF8D919C9111971296AF
:101660006C90129713967C901397A815B90559F5AD
:101670006C0142E0C40ED11CCA14DB0420F1AC01A1
:101680004A195B09DA011296159780F0628273821B
:1016900051834083D9016D937C93E114F10471F07F
:1016A000D7011396FC93EE93129776CF22968C0F68
:1016B0009D1FF90191838083F301EFCFF0936F02B7
:1016C000E0936E0269CF4816590608F42C017D019B
:1016D000D3019ACFCB010E949A097C01009749F06F
:1016E000AE01B8010E947C0BC8010E94360A870136
:1016F00053CF10E000E050CFFB01DC0102C00190AD
:101700000D9241505040D8F70895FB01DC018D91B6
:10171000019080190110D9F3990B0895FB01DC01A8
:1017200001900D920020E1F70895FB01519155239E
:10173000A9F0BF01DC014D9145174111E1F759F4C2
:10174000CD010190002049F04D9140154111C9F3A0
:10175000FB014111EFCF81E090E00197089510E087
:10176000C2E6D0E004C0FE010E9494092196C3366F
:08177000D107C9F7F894FFCF7F
:10177800000070028000000000002D018D00BA00FA
:101788007A01EB00C900DD003F00796F7572636D67
:101798006400696E70757470756C6C757000706932
:1017A8006E6D6F6465006469676974616C777269EE
:1017B8007465006469676974616C7265616400616D
:1017C8006E616C6F67777269746500616E616C6FCA
:1017D800677265616400636F6D6D616E6420697323
:0E17E800206E6F7420646566696E6564000093
:00000001FF
